{
  "contractName": "CampaignFactory",
  "abi": [
    {
      "constant": true,
      "inputs": [
        {
          "internalType": "uint256",
          "name": "",
          "type": "uint256"
        }
      ],
      "name": "deployedCampaignContracts",
      "outputs": [
        {
          "internalType": "address",
          "name": "",
          "type": "address"
        }
      ],
      "payable": false,
      "stateMutability": "view",
      "type": "function"
    },
    {
      "constant": false,
      "inputs": [
        {
          "internalType": "uint256",
          "name": "minimum",
          "type": "uint256"
        }
      ],
      "name": "createCampaign",
      "outputs": [],
      "payable": false,
      "stateMutability": "nonpayable",
      "type": "function"
    },
    {
      "constant": true,
      "inputs": [],
      "name": "getDeployedContracts",
      "outputs": [
        {
          "internalType": "address[]",
          "name": "",
          "type": "address[]"
        }
      ],
      "payable": false,
      "stateMutability": "view",
      "type": "function"
    }
  ],
  "bytecode": "0x608060405234801561001057600080fd5b50611a25806100206000396000f3fe608060405234801561001057600080fd5b50600436106100415760003560e01c8063998cf9a114610046578063a3303a7514610076578063aa9a068f14610092575b600080fd5b610060600480360361005b9190810190610240565b6100b0565b60405161006d919061031b565b60405180910390f35b610090600480360361008b9190810190610240565b6100ec565b005b61009a610190565b6040516100a79190610336565b60405180910390f35b600081815481106100bd57fe5b906000526020600020016000915054906101000a900473ffffffffffffffffffffffffffffffffffffffff1681565b600081336040516100fc9061021e565b610107929190610358565b604051809103906000f080158015610123573d6000803e3d6000fd5b50905060008190806001815401808255809150509060018203906000526020600020016000909192909190916101000a81548173ffffffffffffffffffffffffffffffffffffffff021916908373ffffffffffffffffffffffffffffffffffffffff160217905550505050565b6060600080548060200260200160405190810160405280929190818152602001828054801561021457602002820191906000526020600020905b8160009054906101000a900473ffffffffffffffffffffffffffffffffffffffff1673ffffffffffffffffffffffffffffffffffffffff16815260200190600101908083116101ca575b5050505050905090565b61159f8061044483390190565b60008135905061023a8161042c565b92915050565b60006020828403121561025257600080fd5b60006102608482850161022b565b91505092915050565b60006102758383610290565b60208301905092915050565b61028a816103f6565b82525050565b610299816103ba565b82525050565b6102a8816103ba565b82525050565b60006102b982610391565b6102c381856103a9565b93506102ce83610381565b8060005b838110156102ff5781516102e68882610269565b97506102f18361039c565b9250506001810190506102d2565b5085935050505092915050565b610315816103ec565b82525050565b6000602082019050610330600083018461029f565b92915050565b6000602082019050818103600083015261035081846102ae565b905092915050565b600060408201905061036d600083018561030c565b61037a6020830184610281565b9392505050565b6000819050602082019050919050565b600081519050919050565b6000602082019050919050565b600082825260208201905092915050565b60006103c5826103cc565b9050919050565b600073ffffffffffffffffffffffffffffffffffffffff82169050919050565b6000819050919050565b600061040182610408565b9050919050565b60006104138261041a565b9050919050565b6000610425826103cc565b9050919050565b610435816103ec565b811461044057600080fd5b5056fe60806040523480156200001157600080fd5b506040516200159f3803806200159f8339818101604052620000379190810190620000b5565b80600160006101000a81548173ffffffffffffffffffffffffffffffffffffffff021916908373ffffffffffffffffffffffffffffffffffffffff16021790555081600281905550505062000168565b600081519050620000988162000134565b92915050565b600081519050620000af816200014e565b92915050565b60008060408385031215620000c957600080fd5b6000620000d9858286016200009e565b9250506020620000ec8582860162000087565b9150509250929050565b600062000103826200010a565b9050919050565b600073ffffffffffffffffffffffffffffffffffffffff82169050919050565b6000819050919050565b6200013f81620000f6565b81146200014b57600080fd5b50565b62000159816200012a565b81146200016557600080fd5b50565b61142780620001786000396000f3fe6080604052600436106100a75760003560e01c806382fde0931161006457806382fde093146101c75780638a9cfd55146101f2578063937e09b11461020e578063a00c96d714610239578063d7bb99ba14610269578063d7d1bbdb14610273576100a7565b806303441006146100ac5780630a144391146100c85780633fad183414610105578063481c6a7514610130578063545569ba1461015b57806381d12c5814610186575b600080fd5b6100c660048036036100c19190810190610ccb565b61028f565b005b3480156100d457600080fd5b506100ef60048036036100ea9190810190610c3b565b610471565b6040516100fc91906111b7565b60405180910390f35b34801561011157600080fd5b5061011a610489565b60405161012791906111b7565b60405180910390f35b34801561013c57600080fd5b50610145610495565b6040516101529190611080565b60405180910390f35b34801561016757600080fd5b506101706104bb565b60405161017d919061109b565b60405180910390f35b34801561019257600080fd5b506101ad60048036036101a89190810190610ccb565b610641565b6040516101be9594939291906110bd565b60405180910390f35b3480156101d357600080fd5b506101dc610749565b6040516101e991906111b7565b60405180910390f35b61020c60048036036102079190810190610c64565b61074f565b005b34801561021a57600080fd5b50610223610869565b60405161023091906111b7565b60405180910390f35b34801561024557600080fd5b5061024e61086f565b604051610260969594939291906111d2565b60405180910390f35b610271610913565b005b61028d60048036036102889190810190610ccb565b6109b0565b005b600160009054906101000a900473ffffffffffffffffffffffffffffffffffffffff1673ffffffffffffffffffffffffffffffffffffffff163373ffffffffffffffffffffffffffffffffffffffff161461031f576040517f08c379a000000000000000000000000000000000000000000000000000000000815260040161031690611117565b60405180910390fd5b600080828154811061032d57fe5b9060005260206000209060040201905060026004548161034957fe5b0481600301541161038f576040517f08c379a000000000000000000000000000000000000000000000000000000000815260040161038690611197565b60405180910390fd5b8060020160149054906101000a900460ff16156103e1576040517f08c379a00000000000000000000000000000000000000000000000000000000081526004016103d890611137565b60405180910390fd5b8060020160009054906101000a900473ffffffffffffffffffffffffffffffffffffffff1673ffffffffffffffffffffffffffffffffffffffff166108fc82600101549081150290604051600060405180830381858888f1935050505015801561044f573d6000803e3d6000fd5b5060018160020160146101000a81548160ff0219169083151502179055505050565b60036020528060005260406000206000915090505481565b60008080549050905090565b600160009054906101000a900473ffffffffffffffffffffffffffffffffffffffff1681565b60606000805480602002602001604051908101604052809291908181526020016000905b8282101561063857838290600052602060002090600402016040518060a0016040529081600082018054600181600116156101000203166002900480601f01602080910402602001604051908101604052809291908181526020018280546001816001161561010002031660029004801561059b5780601f106105705761010080835404028352916020019161059b565b820191906000526020600020905b81548152906001019060200180831161057e57829003601f168201915b50505050508152602001600182015481526020016002820160009054906101000a900473ffffffffffffffffffffffffffffffffffffffff1673ffffffffffffffffffffffffffffffffffffffff1673ffffffffffffffffffffffffffffffffffffffff1681526020016002820160149054906101000a900460ff16151515158152602001600382015481525050815260200190600101906104df565b50505050905090565b6000818154811061064e57fe5b9060005260206000209060040201600091509050806000018054600181600116156101000203166002900480601f0160208091040260200160405190810160405280929190818152602001828054600181600116156101000203166002900480156106fa5780601f106106cf576101008083540402835291602001916106fa565b820191906000526020600020905b8154815290600101906020018083116106dd57829003601f168201915b5050505050908060010154908060020160009054906101000a900473ffffffffffffffffffffffffffffffffffffffff16908060020160149054906101000a900460ff16908060030154905085565b60045481565b610757610abc565b6040518060a001604052808581526020018481526020018373ffffffffffffffffffffffffffffffffffffffff168152602001600015158152602001600081525090506000819080600181540180825580915050906001820390600052602060002090600402016000909192909190915060008201518160000190805190602001906107e4929190610b03565b506020820151816001015560408201518160020160006101000a81548173ffffffffffffffffffffffffffffffffffffffff021916908373ffffffffffffffffffffffffffffffffffffffff16021790555060608201518160020160146101000a81548160ff0219169083151502179055506080820151816003015550505050505050565b60025481565b60008060008060008060003373ffffffffffffffffffffffffffffffffffffffff16600160009054906101000a900473ffffffffffffffffffffffffffffffffffffffff1673ffffffffffffffffffffffffffffffffffffffff1614905060025447600080549050600454600160009054906101000a900473ffffffffffffffffffffffffffffffffffffffff168596509650965096509650965050909192939495565b6002543411610957576040517f08c379a000000000000000000000000000000000000000000000000000000000815260040161094e90611157565b60405180910390fd5b6001600360003373ffffffffffffffffffffffffffffffffffffffff1673ffffffffffffffffffffffffffffffffffffffff16815260200190815260200160002081905550600460008154809291906001019190505550565b600160009054906101000a900473ffffffffffffffffffffffffffffffffffffffff1673ffffffffffffffffffffffffffffffffffffffff163373ffffffffffffffffffffffffffffffffffffffff161415610a41576040517f08c379a0000000000000000000000000000000000000000000000000000000008152600401610a3890611177565b60405180910390fd5b6000808281548110610a4f57fe5b9060005260206000209060040201905080600301600081548092919060010191905055506002600360003373ffffffffffffffffffffffffffffffffffffffff1673ffffffffffffffffffffffffffffffffffffffff168152602001908152602001600020819055505050565b6040518060a001604052806060815260200160008152602001600073ffffffffffffffffffffffffffffffffffffffff168152602001600015158152602001600081525090565b828054600181600116156101000203166002900490600052602060002090601f016020900481019282601f10610b4457805160ff1916838001178555610b72565b82800160010185558215610b72579182015b82811115610b71578251825591602001919060010190610b56565b5b509050610b7f9190610b83565b5090565b610ba591905b80821115610ba1576000816000905550600101610b89565b5090565b90565b600081359050610bb78161139f565b92915050565b600081359050610bcc816113b6565b92915050565b600082601f830112610be357600080fd5b8135610bf6610bf182611260565b611233565b91508082526020830160208301858383011115610c1257600080fd5b610c1d83828461134c565b50505092915050565b600081359050610c35816113cd565b92915050565b600060208284031215610c4d57600080fd5b6000610c5b84828501610ba8565b91505092915050565b600080600060608486031215610c7957600080fd5b600084013567ffffffffffffffff811115610c9357600080fd5b610c9f86828701610bd2565b9350506020610cb086828701610c26565b9250506040610cc186828701610bbd565b9150509250925092565b600060208284031215610cdd57600080fd5b6000610ceb84828501610c26565b91505092915050565b6000610d008383610fec565b905092915050565b610d1181611304565b82525050565b610d2081611304565b82525050565b610d2f816112f2565b82525050565b6000610d408261129c565b610d4a81856112bf565b935083602082028501610d5c8561128c565b8060005b85811015610d985784840389528151610d798582610cf4565b9450610d84836112b2565b925060208a01995050600181019050610d60565b50829750879550505050505092915050565b610db381611316565b82525050565b610dc281611316565b82525050565b6000610dd3826112a7565b610ddd81856112d0565b9350610ded81856020860161135b565b610df68161138e565b840191505092915050565b6000610e0c826112a7565b610e1681856112e1565b9350610e2681856020860161135b565b610e2f8161138e565b840191505092915050565b6000610e476017836112e1565b91507f4f6e6c79206d616e6167657220686173206163636573730000000000000000006000830152602082019050919050565b6000610e876028836112e1565b91507f4974207365656d73207265717565737420616c7265616479206265656e20666960008301527f6e616c697a65642e0000000000000000000000000000000000000000000000006020830152604082019050919050565b6000610eed6016836112e1565b91507f52657175697265206d696e696d756d20616d6f756e74000000000000000000006000830152602082019050919050565b6000610f2d602f836112e1565b91507f4d616e6167657220646f65736e277420686176652072696768747320746f206160008301527f7070726f766520726571756573742e00000000000000000000000000000000006020830152604082019050919050565b6000610f936021836112e1565b91507f52657175697265206d6f7265206e756d626572206f6620617070726f76616c7360008301527f2e000000000000000000000000000000000000000000000000000000000000006020830152604082019050919050565b600060a08301600083015184820360008601526110098282610dc8565b915050602083015161101e6020860182611062565b5060408301516110316040860182610d08565b5060608301516110446060860182610daa565b5060808301516110576080860182611062565b508091505092915050565b61106b81611342565b82525050565b61107a81611342565b82525050565b60006020820190506110956000830184610d26565b92915050565b600060208201905081810360008301526110b58184610d35565b905092915050565b600060a08201905081810360008301526110d78188610e01565b90506110e66020830187611071565b6110f36040830186610d17565b6111006060830185610db9565b61110d6080830184611071565b9695505050505050565b6000602082019050818103600083015261113081610e3a565b9050919050565b6000602082019050818103600083015261115081610e7a565b9050919050565b6000602082019050818103600083015261117081610ee0565b9050919050565b6000602082019050818103600083015261119081610f20565b9050919050565b600060208201905081810360008301526111b081610f86565b9050919050565b60006020820190506111cc6000830184611071565b92915050565b600060c0820190506111e76000830189611071565b6111f46020830188611071565b6112016040830187611071565b61120e6060830186611071565b61121b6080830185610d26565b61122860a0830184610db9565b979650505050505050565b6000604051905081810181811067ffffffffffffffff8211171561125657600080fd5b8060405250919050565b600067ffffffffffffffff82111561127757600080fd5b601f19601f8301169050602081019050919050565b6000819050602082019050919050565b600081519050919050565b600081519050919050565b6000602082019050919050565b600082825260208201905092915050565b600082825260208201905092915050565b600082825260208201905092915050565b60006112fd82611322565b9050919050565b600061130f82611322565b9050919050565b60008115159050919050565b600073ffffffffffffffffffffffffffffffffffffffff82169050919050565b6000819050919050565b82818337600083830152505050565b60005b8381101561137957808201518184015260208101905061135e565b83811115611388576000848401525b50505050565b6000601f19601f8301169050919050565b6113a8816112f2565b81146113b357600080fd5b50565b6113bf81611304565b81146113ca57600080fd5b50565b6113d681611342565b81146113e157600080fd5b5056fea365627a7a72315820f32b6a4a6fa36b686b2306a1225efeac99139205ac2f29dd897201645f83c35c6c6578706572696d656e74616cf564736f6c63430005100040a365627a7a723158206fb7471761584d3d1ce22c2c4f58ce07b00cc17bae1ba4b05568af875b0bb57f6c6578706572696d656e74616cf564736f6c63430005100040",
  "source": "pragma solidity >=0.5.0 <0.8.0;\r\npragma experimental ABIEncoderV2;\r\n\r\ncontract CampaignFactory {\r\n    address[] public deployedCampaignContracts;\r\n\r\n    function createCampaign(uint256 minimum) public {\r\n        address contractAddress = address(new Campaign(minimum, msg.sender));\r\n        deployedCampaignContracts.push(contractAddress);\r\n    }\r\n\r\n    function getDeployedContracts() public view returns (address[] memory) {\r\n        return deployedCampaignContracts;\r\n    }\r\n}\r\n\r\ncontract Campaign {\r\n    struct Request {\r\n        string description;\r\n        uint256 value;\r\n        address payable recipient;\r\n        bool complete;\r\n        uint256 approvalCount;\r\n    }\r\n\r\n    Request[] public requests;\r\n    address public manager;\r\n    uint256 public minimumContribution;\r\n    //address[] public approvers;\r\n    mapping(address => uint256) public approvers;\r\n    uint256 public approversCount;\r\n\r\n    modifier _onlyManager() {\r\n        require(msg.sender == manager, \"Only manager has access\");\r\n        _;\r\n    }\r\n\r\n    constructor(uint256 _minimum, address _owner) public {\r\n        manager = _owner;\r\n        minimumContribution = _minimum;\r\n    }\r\n\r\n    function contribute() public payable {\r\n        require(msg.value > minimumContribution, \"Require minimum amount\");\r\n        // approvers.push(msg.sender);\r\n        approvers[msg.sender] = 1;\r\n        approversCount++;\r\n    }\r\n\r\n    function createRequest(\r\n        string memory _description,\r\n        uint256 _value,\r\n        address payable _recipient\r\n    ) public payable {\r\n        Request memory newReq = Request({\r\n            description: _description,\r\n            value: _value,\r\n            recipient: _recipient,\r\n            complete: false,\r\n            approvalCount: 0\r\n        });\r\n\r\n        requests.push(newReq);\r\n    }\r\n\r\n    function approveRequest(uint256 index) public payable {\r\n        require(\r\n            msg.sender != manager,\r\n            \"Manager doesn't have rights to approve request.\"\r\n        );\r\n        // require(\r\n        //     approvers[msg.sender] == 1,\r\n        //     \"It seems you have already approved request.\"\r\n        // );\r\n\r\n        Request storage request = requests[index];\r\n        request.approvalCount++;\r\n        approvers[msg.sender] = 2;\r\n    }\r\n\r\n    function finalizeRequest(uint256 index) public payable _onlyManager {\r\n        Request storage request = requests[index];\r\n\r\n        require(\r\n            request.approvalCount > (approversCount / 2),\r\n            \"Require more number of approvals.\"\r\n        );\r\n        require(!request.complete, \"It seems request already been finalized.\");\r\n\r\n        request.recipient.transfer(request.value);\r\n        request.complete = true;\r\n    }\r\n\r\n    function getCampaignSummary()\r\n        public\r\n        view\r\n        returns (\r\n            uint256,\r\n            uint256,\r\n            uint256,\r\n            uint256,\r\n            address,\r\n            bool\r\n        )\r\n    {\r\n        bool isManager = manager == msg.sender;\r\n        return (\r\n            minimumContribution,\r\n            address(this).balance,\r\n            requests.length,\r\n            approversCount,\r\n            manager,\r\n            isManager\r\n        );\r\n    }\r\n\r\n    function getAllRequest() public view returns (Request[] memory) {\r\n        return requests;\r\n    }\r\n\r\n    function getRequestCount() public view returns (uint256) {\r\n        return requests.length;\r\n    }\r\n}\r\n",
  "sourcePath": "C:\\Users\\sshankariya\\Desktop\\DAPP-Examples\\DAPP-14\\contracts\\Campaign.sol",
  "compiler": {
    "name": "solc",
    "version": "0.5.16+commit.9c3226ce.Emscripten.clang"
  },
  "schemaVersion": "3.1.0",
  "updatedAt": "2020-08-20T21:48:59.484Z",
  "networkType": "ethereum",
  "devdoc": {
    "methods": {}
  },
  "userdoc": {
    "methods": {}
  }
}